:020000040800F2
:1000000038080020050200086102000861020008AB
:10001000610200086102000861020008000000009F
:100020000000000000000000000000006102000865
:10003000610200080000000061020008610200087F
:100040006102000861020008610200086102000804
:100050006102000861020008F1080008610200085E
:1000600061020008610200086102000861020008E4
:1000700061020008610200086102000861020008D4
:1000800061020008610200086102000861020008C4
:1000900061020008610200086102000861020008B4
:1000A00061020008610200086102000861020008A4
:1000B0000D090008610200086102000861020008E1
:1000C0006102000861020008610200086102000884
:1000D0006102000861020008610200086102000874
:1000E0006102000861020008610200086102000864
:1000F0006102000861020008610200086102000854
:100100006102000861020008610200086102000843
:100110006102000861020008610200086102000833
:100120006102000861020008610200086102000823
:100130006102000861020008610200086102000813
:100140006102000861020008610200086102000803
:1001500061020008610200086102000861020008F3
:1001600061020008610200086102000861020008E3
:1001700061020008610200086102000861020008D3
:10018000610200086102000890B484B000AF02462A
:100190000B46FA71BB710023FB60BB7903F00303CC
:1001A0009B000F2202FA03F3FB60154BBA79920809
:1001B000D2B21349B8798008C0B2023051F8200099
:1001C000F968C9430140023243F822100C4BBA7956
:1001D0009208D2B20A49B8798008C0B2023051F808
:1001E0002000FC79B97901F00301890004FA01F1DA
:1001F0000143023243F822101037BD4690BC7047CD
:100200000038014080B582B000AF104B7B60104BCE
:100210003B6007E03B681A1D3A607A68111D7960FF
:1002200012681A603A680B4B9A42F3D30A480B499A
:100230004FF000028842B8BF40F8042BFFF6FAAF37
:1002400000F012F80837BD4680BD00BF300F00082F
:10025000000000203000002030000020340000208A
:1002600080B400AFFEE700BF80B582B000AF00F001
:100270006BFB00F047FC03467B8000237B6007E0BC
:100280007B68DBB2184600F003FB7B6801337B60C0
:100290007A887B689A42F3DC7B887B6007E07B6826
:1002A000DBB2184600F00CFB7B6801337B607B6897
:1002B000072BF4DDDDE700BF80B400AFBD465DF87D
:1002C000047B704780B483B000AF78600B46FB704E
:1002D000FB78002B06D0094B084A116B7A680A4359
:1002E0001A6306E0054B054A116B7A68D2430A404F
:1002F0001A630C37BD465DF8047B70470038024036
:1003000080B483B000AF78600B46FB70FB78002BA5
:1003100006D0094B084A116C7A680A431A6406E051
:10032000054B054A116C7A68D2430A401A640C37AF
:10033000BD465DF8047B70470038024080B483B04E
:1003400000AF78600B46FB70FB78002B06D0094BA2
:10035000084A516C7A680A435A6406E0054B054A1C
:10036000516C7A68D2430A405A640C37BD465DF836
:10037000047B70470038024080B485B000AF7860DD
:1003800039600023FB600023FB727B685B68FB60C5
:10039000FB6823F0407323F48073FB603B681B7998
:1003A0001A023B681B681343FA681343FB607B68BF
:1003B000FA685A607B689B68FB60FA68174B1340C9
:1003C000FB603B681A693B68DB681A433B689B68C3
:1003D0001A433B685B795B001343FA681343FB6085
:1003E0007B68FA689A607B68DB6AFB60FB6823F4D1
:1003F0007003FB603B681B7D013BDAB2FB7A134361
:10040000FB72FB7A1B05FA681343FB607B68FA6892
:10041000DA621437BD465DF8047B7047FDF7FFC014
:1004200080B483B000AF78607B6800221A607B687C
:1004300000221A717B6800225A717B6800229A6040
:100440007B680022DA607B6800221A617B680122E7
:100450001A750C37BD465DF8047B704780B485B0D3
:1004600000AF78600023FB600E4B5B68FB60FA68AE
:100470000D4B1340FB607B681A687B685B681A430E
:100480007B689B681A437B68DB681343FA681343F5
:10049000FB60044BFA685A601437BD465DF8047B74
:1004A000704700BF00230140E030FCFF80B483B000
:1004B00000AF78607B6800221A607B6800225A6077
:1004C0007B6800229A607B680022DA600C37BD46A8
:1004D0005DF8047B704700BF80B483B000AF7860E4
:1004E0000B46FB70FB78002B06D07B689B6843F0C3
:1004F00001027B689A6005E07B689B6823F001023B
:100500007B689A600C37BD465DF8047B704700BF7E
:1005100080B485B000AF7860F970BA707B7000234A
:10052000FB600023BB60FB78092B23D97B68DB6869
:10053000FB60FB78A3F10A0213465B001344072219
:1005400002FA03F3BB60BB68DB43FA681340FB604D
:100550007978FB78A3F10A0213465B00134401FA91
:1005600003F3BB60FA68BB681343FB607B68FA68FF
:10057000DA601EE07B681B69FB60FA7813465B005B
:100580001344072202FA03F3BB60BB68DB43FA683B
:100590001340FB607978FA7813465B00134401FA44
:1005A00003F3BB60FA68BB681343FB607B68FA68BF
:1005B0001A61BB78062B21D87B685B6BFB60BB782C
:1005C0005A1E13469B0013441F2202FA03F3BB601A
:1005D000BB68DB43FA681340FB60F978BB785A1EAE
:1005E00013469B00134401FA03F3BB60FA68BB682F
:1005F0001343FB607B68FA685A6347E0BB780C2BB7
:1006000021D87B681B6BFB60BB78DA1F13469B000D
:1006100013441F2202FA03F3BB60BB68DB43FA6892
:100620001340FB60F978BB78DA1F13469B00134434
:1006300001FA03F3BB60FA68BB681343FB607B6895
:10064000FA681A6322E07B68DB6AFB60BB78A3F17F
:100650000D0213469B0013441F2202FA03F3BB60F2
:10066000BB68DB43FA681340FB60F978BB78A3F101
:100670000D0213469B00134401FA03F3BB60FA68B2
:10068000BB681343FB607B68FA68DA621437BD46C7
:100690005DF8047B704700BF80B483B000AF786022
:1006A0007B689B6843F080427B689A600C37BD464C
:1006B0005DF8047B704700BF80B483B000AF786002
:1006C0007B68DB6C9BB218460C37BD465DF8047B3B
:1006D000704700BF80B485B000AF78600B46FB70F8
:1006E0000023FB737B681A68FB781340002B02D051
:1006F0000123FB7301E00023FB73FB7B18461437D7
:10070000BD465DF8047B704780B487B000AF786069
:10071000396000237B6100233B610023FB600023E1
:100720007B6176E07B69012202FA03F33B613B685F
:100730001A683B691340FB60FA683B699A4265D1CD
:100740007B681A687B695B00032101FA03F3DB43D2
:100750001A407B681A607B681A683B681B791946E7
:100760007B695B0001FA03F31A437B681A603B68FC
:100770001B79012B03D03B681B79022B2ED17B68A0
:100780009A687B695B00032101FA03F3DB431A409B
:100790007B689A607B689A683B685B7919467B69DD
:1007A0005B0001FA03F31A437B689A607B685A681E
:1007B0007B699BB2012101FA03F3DB431A407B689A
:1007C0005A607B685A683B689B7919467B699BB283
:1007D00001FA03F39BB21A437B685A607B68DA68BC
:1007E0007B699BB25B00032101FA03F3DB431A40F0
:1007F0007B68DA607B68DA683B68DB7919467B697D
:100800005B0001FA03F31A437B68DA607B6901330A
:100810007B617B690F2B85D91C37BD465DF8047B56
:10082000704700BF80B483B000AF78607B684FF63C
:10083000FF721A607B6800221A717B6800225A716D
:100840007B6800229A717B680022DA710C37BD4602
:100850005DF8047B704700BF80B483B000AF786060
:100860000B467B807B687A881A830C37BD465DF81F
:10087000047B704780B483B000AF78600B467B8008
:100880007B687A885A830C37BD465DF8047B7047D5
:1008900080B582B000AF0346FB71FA79064B53F87E
:1008A0002220F979054B33F8113010461946FFF72D
:1008B000D3FF0837BD4680BD00000020180F000898
:1008C00080B582B000AF0346FB71FA79064B53F84E
:1008D0002220F979054B33F8113010461946FFF7FD
:1008E000C9FF0837BD4680BD00000020180F000872
:1008F00080B500AF012000F0A5F90346002B04D01D
:10090000012000F091F9FFF7D7FC80BD80B500AF62
:100910004FF08040012100F0C5FA0346002B10D0B3
:100920004FF08040012100F0E7FA064B1B889BB294
:10093000002B06D0034B1B889BB2013B9AB2014BA4
:100940001A8080BD3000002080B500AF00F008F8AC
:1009500000F026F800F05EF800F08CF880BD00BFD3
:1009600080B582B000AF08200121FFF7ABFCCF2398
:100970003B603B6843F47C433B6001233B710223B3
:100980007B710023BB710023FB713B460348194672
:10099000FFF7BAFE0837BD4680BD00BF000C02401D
:1009A00080B586B000AF01200121FFF78BFC012349
:1009B0003B6100233B7502237B750023BB7502233B
:1009C000FB7507F1100312481946FFF79DFE002042
:1009D0000021FFF7D9FB01237B6000233B7210232A
:1009E0007B720123BB723B1D184600F0AFF8062353
:1009F0003B7301237B730123BB730123FB7307F15B
:100A00000C03184600F042F91837BD4680BD00BF00
:100A10000000024080B584B000AF1C233B7000236F
:100A20007B700123BB700123FB703B46184600F02E
:100A30002DF901200121FFF763FC4FF47A73BB60AD
:100A40000F23BB800023BB810023FB803B1D4FF0A5
:100A50008040194600F078F94FF0804001210122D2
:100A600000F0FCF94FF08040012100F0D7F9103779
:100A7000BD4680BD80B58CB000AF4FF480700121C1
:100A8000FFF75CFC04200121FFF71CFC07F12803A1
:100A90001846FFF7C7FE0423BB62032387F82C30F8
:100AA00007F1280315481946FFF72EFE07F1180332
:100AB0001846FFF7FBFC4FF48033FB6107F1180386
:100AC0001846FFF7CBFC3B461846FFF7A9FC00236E
:100AD0003B603B460A481946FFF74EFC0848012197
:100AE000FFF7FAFC3B4606481946FFF745FC044869
:100AF0000121FFF7F1FC3037BD4680BD0008024000
:100B00000020014080B500AF0E480C2101220123D6
:100B1000FFF7FEFC0B48FFF7BFFD00BF09480221AD
:100B2000FFF7D8FD0346012BF8D10648FFF7C4FDB7
:100B300003461A46044BA3FB02131B0A9BB218463A
:100B400080BD00BF002001408988888880B485B0BE
:100B500000AF78600023FB60324BFB607B689B79C1
:100B6000002B4DD02F4B2F4A11687A681268D24360
:100B70000A401A602B4B2B4A51687A681268D2439C
:100B80000A405A607B681B79FA681344FB60FB6873
:100B9000FA6811687A6812680A431A60214B214A80
:100BA00091687A681268D2430A409A601D4B1D4AC8
:100BB000D1687A681268D2430A40DA607B685B7950
:100BC000102B0ED1174B174A91687A6812680A43A6
:100BD0009A60144B134AD1687A6812680A43DA6043
:100BE0001BE0104BFB607B685B79FA681344FB6089
:100BF000FB68FA6811687A6812680A431A600CE0A8
:100C00007B681B79FA681344FB60FB68FA6811681B
:100C10007A681268D2430A401A601437BD465DF8FC
:100C2000047B7047003C014080B483B000AF786023
:100C3000034B7A685A610C37BD465DF8047B7047F8
:100C4000003C014080B485B000AF78600023FB73A6
:100C50000023BB600C4B1A687B681340BB600A4BD7
:100C60005A697B681340002B05D0BB68002B02D06B
:100C70000123FB7301E00023FB73FB7B1846143751
:100C8000BD465DF8047B7047003C014080B485B0F0
:100C900000AF78600023FB730023BB730F237B73CB
:100CA0007B68DB78002B37D0254BDB68DB4303F414
:100CB000E0631B0AFB73FB7BC3F10403BB737A7B0A
:100CC000FB7B42FA03F37B737B685B781A46BB7B42
:100CD00002FA03F3FB737B689A787B7B1340DAB2EA
:100CE000FB7B1343FB73FB7B1B01FB73154A7B6888
:100CF0001B781344FA7B83F80023124B7A6812782E
:100D00005209D2B27968097801F01F01012000FA76
:100D100001F143F822100EE00A4B7A68127852096A
:100D2000D2B27968097801F01F01012000FA01F1BF
:100D3000203243F822101437BD465DF8047B70471B
:100D400000ED00E000E100E080B485B000AF786025
:100D500039600023FB817B681B88FB817A68284B04
:100D60009A4213D07A68274B9A420FD07B68B3F12E
:100D7000804F0BD07A68244B9A4207D07A68234B75
:100D80009A4203D07A68224B9A4208D1FB8923F019
:100D90007003FB813B685A88FB891343FB817A68A7
:100DA0001C4B9A420CD07A681B4B9A4208D0FB89A4
:100DB00023F44073FB813B681A89FB891343FB8151
:100DC0007B68FA891A803B685A687B68DA623B68FC
:100DD0001A887B681A857A68094B9A4203D07A6828
:100DE000084B9A4204D13B689B7A1A467B681A8664
:100DF0007B6801229A821437BD465DF8047B7047F8
:100E000000000140000401400004004000080040D0
:100E1000000C0040001000400014004080B483B07B
:100E200000AF78600B46FB70FB78002B08D07B6826
:100E30001B889BB243F001039AB27B681A8007E0DB
:100E40007B681B889BB223F001039AB27B681A80EF
:100E50000C37BD465DF8047B704700BF80B483B09B
:100E600000AF786013460A467A807B707B78002B4F
:100E700008D07B689B899AB27B8813439AB27B68BF
:100E80009A8109E07B689B899AB27B88DB439BB29D
:100E900013409AB27B689A810C37BD465DF8047B9B
:100EA000704700BF80B485B000AF78600B467B8090
:100EB0000023FB730023BB8100237B817B681B8A9B
:100EC0009AB27B881340BB817B689B899AB27B88EE
:100ED00013407B81BB89002B05D07B89002B02D07E
:100EE0000123FB7301E00023FB73FB7B18461437DF
:100EF000BD465DF8047B704780B483B000AF786076
:100F00000B467B807B88DB439AB27B681A820C3766
:100F1000BD465DF8047B7047010002000400080034
:100F20004000800000040008001000200040008005
:100F3000000C0240000C0240000C0240000C024079
:100F4000000C0240000C0240000C0240000C024069
:100F5000000C0240000C0240000C0240000C024059
:0400000508000000EF
:00000001FF
